S01A0000466972737441746D65676150726F6A6563742E73726563DC
S11300000C9434000C943E000C943E000C943E007E
S11300100C943E000C943E000C943E000C943E0064
S11300200C943E000C943E000C943E000C943E0054
S11300300C943E000C943E000C943E000C943E0044
S11300400C943E000C943E000C943E000C943E0034
S11300500C943E000C943E000C943E000C943E0024
S11300600C943E000C943E0011241FBECFEFD8E048
S1130070DEBFCDBF0E9440000C9465000C940000CC
S11300808AB180628AB98AB18E7F8AB98BB1816064
S11300908BB9489B0DC02FEF81EE94E02150804036
S11300A09040E1F700C000008BB18F7D8BB9F1CF98
S11300B02FEF81EE94E0215080409040E1F700C0A2
S11100C000008BB180628BB9E4CFF894FFCFBF
S9030000FC
