:100000000C9434000C9449000C9449000C94490061
:100010000C9449000C9449000C9449000C9449003C
:100020000C9449000C9449000C9449000C9449002C
:100030000C9449000C9449000C9449000C9449001C
:100040000C9449000C9449000C9449000C9449000C
:100050000C9449000C9449000C9449000C944900FC
:100060000C9449000C94490011241FBECFEFD8E036
:10007000DEBFCDBF11E0A0E0B1E0EAEEF1E002C0EA
:1000800005900D92A036B107D9F70E9496000C9406
:10009000F3000C9400001092C5008093C400E1ECC2
:1000A000F0E0808188608083808180618083E2ECE1
:1000B000F0E080818660808308959B01AC0160E45C
:1000C00072E48FE090E00E94D100CA01B901615052
:1000D00071098109910908959091C00095FFFCCFA5
:1000E0008093C6000895EF92FF920F931F93CF93D2
:1000F000DF937C01FC0101900020E9F731978F012B
:10010000081B190BC0E0D0E007C0F701EC0FFD1F82
:1001100080810E946C002196C017D107B4F3DF9153
:10012000CF911F910F91FF90EF9008958AB1877042
:100130008AB98BB1886F8BB960E07BE480E090E096
:100140000E945D00CB010E944B004B9B04C084E0E9
:1001500091E00E9473004C9B04C085E191E00E94F5
:1001600073004D9B04C086E291E00E9473004E9B99
:1001700004C087E391E00E9473004F9B04C088E4B1
:1001800091E00E94730089E591E00E9473002FEFD7
:1001900087EA91E6215080409040E1F700C00000DE
:1001A000D4CFA1E21A2EAA1BBB1BFD010DC0AA1FB2
:1001B000BB1FEE1FFF1FA217B307E407F50720F0D0
:1001C000A21BB30BE40BF50B661F771F881F991F4B
:1001D0001A9469F760957095809590959B01AC0194
:0A01E000BD01CF010895F894FFCF90
:1001EA00256C64004C454420302069732061637497
:1001FA006976650A004C45442031206973206163A1
:10020A00746976650A004C4544203220697320617E
:10021A0063746976650A004C45442033206973206B
:10022A006163746976650A004C4544203420697319
:10023A00206163746976650A000A0A0A0A0A0A00D2
:00000001FF
