S01A0000466972737441746D65676150726F6A6563742E73726563DC
S11300000C9434000C943E000C943E000C943E007E
S11300100C943E000C943E000C943E000C943E0064
S11300200C943E000C943E000C943E000C943E0054
S11300300C943E000C943E000C943E000C943E0044
S11300400C943E000C943E000C943E000C943E0034
S11300500C943E000C943E000C943E000C943E0024
S11300600C943E000C943E0011241FBECFEFD8E048
S1130070DEBFCDBF0E9440000C945C000C940000D5
S11300808AB180628AB98BB180628BB92FEF89E61D
S113009098E1215080409040E1F700C000008BB10E
S11300A08F7D8BB92FEF89E698E1215080409040F5
S10F00B0E1F700C00000E7CFF894FFCF98
S9030000FC
